:0300000002159551
:0C159500787FE4F6D8FD7581530215DC68
:1014660000A8C0003F065B4F666D7D077F6F0008D2
:1014760040014148BF86DBCFE6EDFD87FFEF717780
:101486000638793F010601060188018801B801B8CE
:101496000188015D015D014A014A01250126010617
:1014A60001880188015D015D014A014A0126018822
:1014B6000188015D015D014A014A012601060126F6
:1014C600014A010601060126014A0106014A015D9B
:1014D6000188014A015D0188018801B80188015D22
:1014E600014A0106018801B80188015D014A010629
:0C14F600010600C40106010600C4010646
:101015000233000002250000024400000223000004
:10102500024A0000023800000236000001320001C9
:101035004900014300013500014600014700012236
:1010450014012900012B01012D02013103012700A3
:10105500012800012A00012C00083B0C0D0B0C0D8A
:0E1065000B0C0D032EFF148A014800013A1CEB
:081DD7007F6C7E91DEFEDFFC53
:011DDF0022E1
:1017A100E53725E0FFE53633AB2EAA2FA9308F822E
:1017B100F583120894FFAEF07D147C00121729E521
:1017C100372401FFE43536FEAD3A7C0012083F8C28
:1017D100368D37AE33AF347C007D0312083FED24E4
:1017E1000BF5497F077E00743A2FF8E6FD743B2F15
:1017F100F8A605EF1F70011EEF4E70EB85493B8582
:101801003E4F853F50854051854152854253AB3D06
:07181100AD3CAF3B021CEAF5
:101BA700AF29121D278F27AF2B121D278F28EFFE76
:101BB7007C00E42527FFEC3EFED3E5269FE5259E26
:101BC7004012AD26AF29121D5E121DD7E525FDAFC8
:051BD7002B121D5E222F
:10181800AF29121D278F27AF2B121D278F28EFFE08
:101828007C00E42527F545EC3EF544FEAF457C03F6
:101838007DE812083F7C007D0A12083FAB05AE44E4
:10184800AF457C007D6412083F7C007D0A12083F8A
:10185800AA05AE44AF457C007D0A12083F7C007D96
:101868000A12083F8D528A518B50754F0AAE44AF09
:10187800457C007D0A12083F8D537B0A7D0A7F0A4A
:03188800021CEA55
:10188B00AF2D121D278F2AAF31121D278F2CAF2A98
:10189B007E007C037DE812082DAC06AD07E52C75A8
:1018AB00F00AA42DFFEC35F0FEC3E5399FE5389E19
:1018BB005034AE38AF397C037DE812083FAD07AF2B
:1018CB002D121D5E121DD7AE38AF397C037DE81289
:1018DB00083F7E007F0ACFCDCFCECCCE12083FADD6
:0718EB0007AF31121D5E2260
:101AEB00AF2D121D278F2AAF31121D278F2C754F4B
:101AFB000AE52A75F00A84F550E52A75F00A84E5A3
:101B0B00F02410F551E52C75F00A84F552E52C758F
:0F1B1B00F00A8485F0537B0A7D0A7F0A021CEAD8
:100D8600E5437031FF121AABBF0111E4FDAF291222
:100D96001D5E121DD7E4FDAF2B121D5E7F01121AD8
:100DA600ABBF01117D63AF2D121D5E121DD77D6392
:100DB600AF31121D5EE54364016003020E6AE5353C
:100DC6006003020E6AE5326003020E6AFF121AAB76
:100DD600EF64017014E542B40D0D1217A10526E566
:100DE6002670020525807D801C7F01121AABEF64F8
:100DF600017071E542B40C0D1217A10526E52670A7
:100E0600630525805FAE25AF267C037DE812083F8B
:100E16007C007D0A12083FAB05AE25AF267C007D1F
:100E26006412083F7C007D0A12083FAA05AE25AF72
:100E3600267C007D0A12083F7C007D0A12083F8D41
:100E4600528A518B50754F0AAE25AF267C007D0A1B
:100E560012083F8D537B0A7D0A7F0A121CEA121B79
:100E6600A7753501E54364016003020EF1E53570AF
:100E76007AE53264017074FF121AABEF64017031C7
:100E8600E522D39400402AE542B40D071217A115B6
:100E960022801E754F1B75501C75511D75521E758F
:100EA600531F7B1A7D0A7F0A121CEA7535017522CB
:100EB600147F01121AABEF64017030E522D394005F
:100EC6004029E542B40C061217A1152222754F1BC4
:100ED60075501C75511D75521E75531F7B1A7D0A60
:0C0EE6007F0A121CEA75350175221422E7
:100A2B00E5436003020AEA7F051219DEBF0112E4F7
:100A3B00F546F547E5326003020AEA753201020A10
:100A4B00EA7F021219DEBF0113E4F546F547E532E2
:100A5B0064016003020AEAF532020AEA7F04121902
:100A6B00DEBF010B754601E4F54712181880707F45
:100A7B00011219DEBF010BE4F546754701121AEBA3
:100A8B00805D7F031219DEBF01237543018533237C
:100A9B00853424853E4F853F508540518541528595
:100AAB004253AB3DAD3CAF3B121CEA8032E4FF122C
:100ABB0019DEEF64017028E548045401F548700E07
:100ACB00752EFF752F1475308A753A1C8011E54809
:100ADB00B4010C752EFF752F147530C2753A20E5D5
:100AEB004364016003020B78E5356003020B78E584
:100AFB0032707AFF1219DEEF64017071E542B40BAC
:100B0B000D1217A10526E52670630525805FAE251E
:100B1B00AF267C037DE812083F7C007D0A12083F5C
:100B2B00AB05AE25AF267C007D6412083F7C007DB3
:100B3B000A12083FAA05AE25AF267C007D0A1208D3
:100B4B003F7C007D0A12083F8D528A518B50754FA6
:100B5B000AAE25AF267C007D0A12083F8D537B0A17
:100B6B007D0A7F0A121CEA121BA7753501E5436447
:100B7B0001703DE5357039E53264017033FF1219B0
:100B8B00DEEF6401702AE542B40B071217A11522A0
:100B9B00801E754F1B75501C75511D75521E75535C
:100BAB001F7B1A7D0A7F0A121CEA75350175221408
:100BBB00E535B401197F031219DEBF0111E4F525E8
:0F0BCB00F526F543F535F546F547F536F53722AE
:101300000534E53470020533E5437020E546701C72
:10131000E5477018754F0A75500A75510A8548528D
:101320008532537B0A7D0A7F0A121CEAE52260039C
:101330000213BD75350175470185334A85344BC3AA
:10134000E54B9524FFE54A9523FE7C007D0A1208B3
:101350002D8E388F397C277D1012083F7C007D0A46
:1013600012083FAB05C003AE38AF397C037DE812ED
:10137000083F7C007D0A12083FED2410FBAE38AF19
:10138000397C007D6412083F7C007D0A12083FAA68
:1013900005AE38AF397C007D0A12083F7C007D0A1B
:1013A00012083F8D538A528B51D050754F0A7B0AD9
:0E13B0007D0A7F0A121CEA12188B7522142285
:101A6800121D43121D0A7F9B121BDC121CCA7D0724
:101A7800E4FF121DE9E4FF121E187BFF7A0A792B96
:101A88007F071216AC7BFF7A0D79867F041216AC9D
:101A98007BFF7A1379007F011216AC121E1E121BEF
:031AA8006980FB57
:091DE0008B88898C88898F888921
:1010730052007A86860086860086860086860086EB
:09108300860086860041006F0919
:03002B00021E12A0
:061E120053BCEFD20F32B9
:020BDA00151FE5
:100BDC00200F03020D83C20F90006EE0B409004099
:100BEC0003020D65900BF7F8282873020C3E020CDB
:100BFC0012020C24020C50020C12020C24020C6780
:100C0C00020C12020C24AFBDEFFEADBE7C00E42D35
:100C1C00FFEC3E900070803CAFBDEFFEADBE7C00A3
:100C2C00E42DFFEC3E900072F0A3EFF0751A010278
:100C3C000D6BAFBDEFFEADBE7C00E42DFFEC3E9026
:100C4C0000748010AFBDEFFEADBE7C00E42DFFEC58
:100C5C003E900076F0A3EFF0020D6BAFBDEFFEAD52
:100C6C00BE7C00E42DFFEC3E900078F0A3EFF090FA
:100C7C000078E0FEA3E07807CEC313CE13D8F9A812
:100C8C001FF6C394065013A81FE675F003A4247A2C
:100C9C00F582E43400F583E014F090006FE014F07A
:100CAC006003020D6B7409F0A81FE4F6A81FE6FFA1
:100CBC00C394064003020D6BEF75F003A4247AF580
:100CCC0082E43400F583E0C39480502AE6FF75F08B
:100CDC0003A4247BF582E43400F583E0D3948040B4
:100CEC0040EF75F003A4247CF582E43400F58374A2
:100CFC0001F0F51B802BA81FE6FF75F003A4247BE5
:100D0C00F582E43400F583E0C394805014EF75F061
:100D1C0003A4247CF582E43400F5837402F0751B83
:100D2C0001A81FE6FF75F003A4247AF582E43400D1
:100D3C00F583E0FEEF75F003A4247BF582E4340028
:100D4C00F583EEF0E675F003A4247AF582E4340022
:100D5C00F5837486F006020CB890006E74FFF09068
:100D6C00006EE0D39407400374FFF090006EE00433
:070D7C00F0901DE093F5BCAF
:030D8300051F2227
:021D9400151F19
:091D9600A81FA61BE4F51BE6FFE3
:031D9F00051F22FB
:021DA200151F0B
:091DA400A81FA61AE4F51AE6FFD7
:031DAD00051F22ED
:101BDC008F9D75BC88439720D2AD90004574FFF063
:101BEC00A3740BF0A374DAF0A374FFF0A3741DF0CC
:101BFC00A37494F0A374FFF0A3741DF0A374A2F06B
:011C0C0022B5
:071E04007B017A00797022D6
:1019DE00C3EF64809480403BD3EF64809485503392
:1019EE00EFFD3395E0FC90007C75F003ED120A19C3
:1019FE00EC75F003A42583F583E0FE90007C75F072
:101A0E0003ED120A19EC75F003A42583F583E4F0B7
:051A1E00AF06227F036A
:011A230022A0
:041C3800151F151F40
:101C3C00121DF2A81FA60608A607A81FE6FE08E6B6
:0F1C4C00FF4E600BEF24FFFFEE34FFFE121DFB77
:051C5B00051F051F221A
:101CCA0053B1EF43B210121E27E4F5D975DA49D29F
:101CDA00DE90003F74FFF0A3741CF0A37438F02266
:081729008E4C8F4D8C4E8D4F4C
:10173100121DF2EF4E7066AF4FAE4E121DFBC3E5A8
:101741004D940AE54C9400404BE47B18FAF9F8906B
:1017510014661209FD120957C006C007AE4CAF4D01
:10176100AB07AA06E4F9F8D007D006120957AB0770
:10177100AA06AFF9EFFEADE97C00E42DFFEC3ECF08
:101781002BCF3AAD07FCAF03AE02121D73D2D84383
:0F179100DA018006121E2753DAFE7F02227F0341
:0117A0002226
:0C1DCB00121DF2EF4E7002FF227F012279
:10121700E4F580900097E0FFB40800505F90122B30
:10122700F828287302124302124902124F0212557C
:1012370002125B02126502126F021279C2A3C2A2E6
:101247008016C2A3C2A2801AC2A3C2A2801EC2A3D2
:10125700C2A28022C2A3D2A2C2A1C2A08020C2A3DE
:10126700D2A2C2A1D2A08016C2A3D2A2D2A1C2A0EA
:10127700800CC2A3D2A2D2A1D2A08002D2A3C3EF74
:10128700648094885029900097E0FF3395E0FE74BE
:101297008E2FF58274003EF583E0FF3395E0FE74F0
:1012A7006A2FF58274143EF583E493F580801E90CF
:1012B7000097E0FFB408133395E0FE748E2FF58294
:1012C70074003EF583E0F5808003E4F58090008D9F
:1012D700E0FF900097E004FEF0D3EF6480F8EE643F
:1012E70080984014E0D36480948850047408F022F6
:0912F70090008CE0900097F022B9
:101D4300E4F5937594FF5395F043960F90002A742E
:0B1D5300FFF0A37412F0A37417F0223D
:091DE90090008CEFF0A3EDF02254
:101CEA0090008EEFF0A3EDF0A3EBF0A3E54FF0A385
:101CFA00E550F0A3E551F0A3E552F0A3E553F02235
:061E1800900096EFF0229D
:10108C00011E00490099949400949400949400419A
:03109C0000981E9B
:020EF200151FCA
:100EF40020B206900099E014F020B30690009CE024
:100F040014F020970690009FE014F0900098E014ED
:100F1400F06003021012741EF0A81FE4F6A81FE686
:100F2400FFC3648094834003021012EF3395E0FE04
:100F340090009975F003EF120A19EE75F003A425D9
:100F440083F583E0C39480503990009A75F003EFE1
:100F5400120A19EE75F003A42583F583E0D3948077
:100F6400405AE6FF3395E0FE90009B75F003EF12C4
:100F74000A19EE75F003A42583F5837401F0F51EB8
:100F8400803AA81FE6FF3395E0FE90009A75F003BF
:100F9400EF120A19EE75F003A42583F583E0C394D8
:100FA40080501990009B75F003EF120A19EE75F04A
:100FB40003A42583F5837402F0751E01A81FE6FFC0
:100FC400FD3395E0FC90009975F003ED120A19ECDD
:100FD40075F003A42583F583E0FE90009A75F00371
:100FE400ED120A19EC75F003A42583F583EEF0EFF6
:100FF4003395E0FE90009975F003EF120A19EE752F
:0E100400F003A42583F5837494F006020F21F7
:03101200051F2295
:021DB000151FFD
:091DB200A81FA61EE4F51EE6FFC1
:031DBB00051F22DF
:101D0A0090003074FFF0A3741DF0A374B0F090003B
:0D1D1A002D74FFF0A3740EF0A374F2F022FC
:101AAB00EF600764016003BF0233EFFD3395E0FC89
:101ABB0090009B75F003ED120A19EC75F003A42549
:101ACB0083F583E0FE90009B75F003ED120A19EC91
:0F1ADB0075F003A42583F583E4F0AF06227F03A3
:011AEA0022D9
:10109F004100000A4100290A41006D0A040E0000B8
:1010AF0000000114004600670000FFFF8FFFC10D15
:1010BF00C105C108C101C10E60240005FF1E2AFF32
:1010CF001E2AFF1E2AFF1E2AFF1E2AFF1E2AFF1E90
:1010DF002AFF1E2AFF1E2AFF1E2AFF1E2AFF1E2A74
:1010EF006036002AFF1E2AFF1E2AFF1E24FF1E2A1B
:1010FF00FF1E24FF1E2AFF1E24FF1E2AFF1E2AFF8B
:10110F001E2AFF1E24FF1E24FF1E24FF1E24FF1E67
:0A111F002AFF1E2AFF1E2AFF1E2AC7
:011E2A002295
:031E24007F00221A
:10199700438E805389F07BE07A2879017800901490
:1019A700661209FD121A24EFF404F58A7BE07A28FF
:1019B700790178009014661209FD121A24C3E49F76
:1019C700FFE49EFE74019DFDE49CFC78081209E982
:0719D7008F8CD28CD2A922F3
:03000B0002194592
:04194500C0E0C0D06E
:10194900D5080A75084C300D020514D20DA2037290
:10195900045036150AE50A7030850C0AD207300A98
:1019690017E50D6007150D438F01801D538FFEC2CA
:10197900B5D51615C20A8011050BE50BD39406409F
:0919890008C203E5136002D20656
:05199200D0D0D0E032CE
:1018F200300E47C20E9014661209FD78101209E9E3
:101902008E1C8F1D900003E0FEA3E0FFE4FCFD7B34
:1019120019FAF9F81208CCC006C007AE1CAF1DAB0D
:1019220007AA06E4F9F8D007D006121A247803129F
:1019320009E9900065EEF0A3EFF0900065E0FEA3E8
:02194200E0FFC4
:011944002280
:091DF200900067E0FEA3E0FF226F
:091DFB00900067EEF0A3EFF02266
:101D730090006BEEF0A3EFF0900069ECF0A3EDF0B0
:011D8300223D
:031E2700C2B42220
:03003B000213BEEF
:1013BE00C0E0C083C082C0D075D000C004C005C0DC
:0313CE0006C0074F
:1013D10030DF04C2DF807D30DA04C2DA807630D9B2
:1013E1003DC2D9AFFBEFFEADEB7C00E42DFFEC3E3F
:1013F10020000E900001F0A3EFF075DB11D2008008
:1014010053FE900001E0FCA3E0FDC3EF9DFFEE9CC5
:10141100A3F0A3EFF075DB00C200D20E803630D806
:1014210033C2D8900067E07002A3E06022B2B490AA
:101431000069E0FEA3E0F5EAEEF5FAA3E0FEA3E021
:10144100FF90006AE02FF0900069E03EF08005C255
:04145100B453DAFEB8
:10145500D007D006D005D004D0D0D082D083D0E03C
:011465003254
:061E1E00121997D2AF2259
:101621003004047F0180027F00200A047E018002D1
:101631007E00EE5F6074E515C3950950683002368F
:10164100750D01E515131313541FAB17AA18A9192A
:10165100F582758300120800FFE515540704FEEFBB
:10166100A806088002C333D8FC30D705751603805D
:101671002F751601802AAB17AA18A91975F002E572
:1016810015A4F58285F083120800F50DE51575F0B6
:1016910002A429F9EA35F0FA900001120800F516C2
:0A16A1000515D20A22C204438F107F
:0116AB00221C
:10112A00900000E014F0701F740AF0D205900029B4
:10113A00E014F07012740AF0D20890006DE014F016
:10114A007005740AF0D20190002AA3E0FAA3E0F92C
:10115A00120A2590002DA3E0FAA3E0F9120A2590BD
:10116A000039A3E0FAA3E0F9120A25900045A3E0AA
:10117A00FAA3E0F9120A25900054A3E0FAA3E0F9D1
:10118A00120A2590005DA3E0FAA3E0F9120A25905D
:10119A00004BA3E0FAA3E0F9120A25EF600C9000D5
:1011AA001DA3E0FAA3E0F9120A2590004EA3E0FA83
:1011BA00A3E0F9120A25EF600E900020A3E0FAA33B
:1011CA00E0F9120A25D20BE512D394004016D51283
:1011DA003030090C900023A3E0FAA3E0F9120A25A3
:1011EA00D20C801D900051A3E0FAA3E0F9120A255F
:1011FA00EF600E900023A3E0FAA3E0F9120A25D2C9
:0D120A000C900005A3E0FAA3E0F9020A250C
:1015020090003FA3E0FAA3E0F9120A25900042A35B
:10151200E0FAA3E0F9120A25900033A3E0FAA3E06F
:10152200F9120A25900008A3E0FAA3E0F9120A25AD
:10153200900030A3E0FAA3E0F9120A25EF600C90C4
:101542000011A3E0FAA3E0F9120A25900036A3E005
:10155200FAA3E0F9120A25EF600C900017A3E0FA53
:10156200A3E0F9120A25900048A3E0FAA3E0F912D9
:101572000A25EF600C90001AA3E0FAA3E0F9120A20
:101582002530060EC206900026A3E0FAA3E0F91267
:031592000A252205
:101B2A0090000BA3E0FAA3E0F9120A2590003CA367
:101B3A00E0FAA3E0F9120A25EF600C900014A3E082
:101B4A00FAA3E0F9120A25900057A3E0FAA3E0F9F4
:0F1B5A00120A2590005AA3E0FAA3E0F9020A2527
:101C0D00AF11AE10AD0FAC0E900060120A0D90002A
:101C1D0064E514F0E4F511F510F50FF50EF51490DB
:0B1C2D00000EA3E0FAA3E0F9020A2574
:101B6900300705C207121621300D05C20D12112AC0
:101B7900300505C205121502300805C208121B2AD4
:101B8900300105C201121C0DE5112401F511E435DE
:0E1B990010F510E4350FF50FE4350EF50E22B1
:1016AC008B4C8A4D894EEFB40C0050709016BFF8DD
:1016BC002828730216E30216E80216ED0216F2024F
:1016CC0016F70216FC02170102170602170B021777
:1016DC001002171502171A9000058035900008802B
:1016EC003090000B802B90000E80269000118021F2
:1016FC00900017801C900014801790001A80129094
:10170C00001D800D90002080089000238003900025
:0D171C0026E54CF0A3E54DF0A3E54EF022CC
:071E0B007B017A00796022DF
:101D8400D2C0000000D2CD000000C2C0000000227A
:0D1DBE00C2C0000000D2CD000000D2C02243
:0B1C6000121C84121C6BAF05121C84C8
:101C6B00E4FFD2CD30C009EFC394FF50030F80F4D3
:081C7B00000000C2CD000000D2
:011C8300223E
:101C8400E4FEEF25E0FFC2CD00000092C00000009A
:101C9400D2CD0000000EBE08E9C2CD000000D2C0C3
:031CA4000000003D
:011CA700221A
:101CA800C2CD000000D2C000E4FED2CD0000EF2576
:101CB800E0FDA2C0E4334DFF0000C2CD000EBE0817
:011CC800E932
:011CC90022F8
:101D5E00AC07121D847FA0121C84121C6BAF0412E0
:051D6E001C60021DBE17
:021D2700AD0706
:101D2900121D847FA0121C60121D847FA1121C84C5
:091D3900121C6B121CA8121DBE45
:011D4200227E
:1015A100021A68E493A3F8E493A34003F68001F2DE
:1015B10008DFF48029E493A3F85407240CC8C3334B
:1015C100C4540F4420C8834004F456800146F6DF1A
:1015D100E4800B0102040810204080901015E47E85
:1015E100019360BCA3FF543F30E509541FFEE4930F
:1015F100A360010ECF54C025E060A840B8E493A3D6
:10160100FAE493A3F8E493A3C8C582C8CAC583CA00
:10161100F0A3C8C582C8CAC583CADFE9DEE780BEB8
:0111290000C5
:10080000BB010CE58229F582E5833AF583E02250AD
:1008100006E92582F8E622BBFE06E92582F8E222F7
:0D082000E58229F582E5833AF583E4932211
:10082D00EF8DF0A4A8F0CF8CF0A428CE8DF0A42EDF
:02083D00FE2299
:10083F00BC000BBE0029EF8DF084FFADF022E4CC9D
:10084F00F875F008EF2FFFEE33FEEC33FCEE9DEC66
:10085F00984005FCEE9DFE0FD5F0E9E4CEFD22EDAC
:10086F00F8F5F0EE8420D21CFEADF075F008EF2FF6
:10087F00FFED33FD4007985006D5F0F222C398FDE7
:05088F000FD5F0EA2284
:10089400BB0110E58229F582E5833AF583E0F5F0A2
:1008A400A3E0225009E92582F886F008E622BBFE7F
:1008B4000AE92582F8E2F5F008E222E5832AF583C5
:0808C400E993F5F0A3E993228A
:1008CC00E88FF0A4CC8BF0A42CFCE98EF0A42CFCCB
:1008DC008AF0EDA42CFCEA8EF0A4CDA8F08BF0A449
:1008EC002DCC3825F0FDE98FF0A42CCD35F0FCEBA8
:1008FC008EF0A4FEA9F0EB8FF0A4CFC5F02ECD396D
:0F090C00FEE43CFCEAA42DCE35F0FDE43CFC22D9
:10091B0075F008758200EF2FFFEE33FECD33CDCC93
:10092B0033CCC58233C5829BED9AEC99E582984016
:10093B000CF582EE9BFEED9AFDEC99FC0FD5F0D6F3
:10094B00E4CEFBE4CDFAE4CCF9A88222B800C1B91D
:10095B000059BA002DEC8BF084CFCECDFCE5F0CB5B
:10096B00F97818EF2FFFEE33FEED33FDEC33FCEB94
:10097B0033FB10D703994004EB99FB0FD8E5E4F94F
:10098B00FA227818EF2FFFEE33FEED33FDEC33FC3C
:10099B00C933C910D7059BE99A4007EC9BFCE99A30
:1009AB00F90FD8E0E4C9FAE4CCFB2275F010EF2F75
:1009BB00FFEE33FEED33FDCC33CCC833C810D70775
:1009CB009BEC9AE899400AED9BFDEC9AFCE899F8B0
:0E09DB000FD5F0DAE4CDFBE4CCFAE4C8F92243
:101A2400C2D5E830E70FB2D5E4C39BFBE49AFAE4ED
:101A340099F9E498F8EC30E717B2D5121A5A12095A
:101A440057E4C39BFBE49AFAE499F9E498F8800319
:101A540012095730D50DE4C39FFFE49EFEE49DFDBB
:041A6400E49CFC22E0
:1009E900E86010ECA2E713FCED13FDEE13FEEF1324
:0409F900FFD8F02211
:1009FD00E493FC740193FD740293FE740393FF2240
:0C0A0D00ECF0A3EDF0A3EEF0A3EFF0225C
:0C0A1900A42582F582E5F03583F58322E8
:060A25008A838982E4735C
:00000001FF
